:020000041000EA
:1000000000B5324B212058609868022188439860DF
:10001000D860186158612E4B002199600221596106
:100020000121F02299502B49196001219960352056
:1000300000F044F80222904214D00621196600F024
:1000400034F8196E01211966002018661A6600F04E
:100050002CF8196E196E196E052000F02FF8012189
:100060000842F9D1002199601B49196000215960AB
:100070001A491B48016001219960EB211966A021F2
:10008000196600F012F800219960164914480160C1
:100090000121996001BC002800D000471248134993
:1000A000086003C880F30888084703B5996A0420EC
:1000B0000142FBD001200142F8D103BD02B5186610
:1000C0001866FFF7F2FF186E186E02BD00000240BE
:1000D000000000180000070000035F00212200005C
:1000E000F4000018222000A00001001008ED00E03C
:1000F00000000000000000000000000074B24E7A12
:1001000000200420F7010010C3010010C5010010F9
:10011000C1010010C1010010C1010010C101001097
:10012000C1010010C1010010C1010010C701001081
:10013000C1010010C1010010C9010010CB01001065
:10014000CD010010CD010010CD010010CD01001037
:10015000CD010010CD010010CD010010CD01001027
:10016000CD010010CD010010CD010010CD01001017
:10017000CD010010CD010010CD010010CD01001007
:10018000CD010010CD010010CD010010CD010010F7
:10019000CD010010CD010010CD010010CD010010E7
:1001A000CD010010CD010010CD010010CD010010D7
:1001B000CD010010CD010010CD010010CD010010C7
:1001C00000BE00BE00BE00BE00BE00BEEFF3058054
:1001D000103800BEF2EB8871C06A0010E46A0010AB
:1001E0003402001090A31AE700201F49086006C8D7
:1001F00081F3088810471D48006800282FD10DA4FE
:100200000ECC002902D000F012F8F9E71849194A7B
:10021000002000E001C19142FCD1174988471749ED
:1002200088471749884700BEFDE701C901C29A42C5
:10023000FBD37047E46A0010C00000205403002084
:10024000786D00100000042000000420786D00107C
:10025000001004200010042000000000704709482E
:1002600003F056F90047000008ED00E0000000D060
:10027000580300203C0700209922001005030010BD
:10028000552200105756000006005250ABB3605381
:10029000146A001006005250861C0302246A0010E3
:1002A000060052505422A29D346A0010050052509C
:1002B000DE65F468786D0010F8B5C04610B5064CE0
:1002C0002378002B07D1054B002B02D0044800E017
:1002D00000BF0123237010BD58040020000000005F
:1002E000384A0010044B10B5002B03D003490448D2
:1002F00000E000BF10BDC046000000005C0400200C
:10030000384A001070B5192000F0B8F9D0231B0648
:10031000802292045A629A6104F0A8F90A2001F03E
:100320008BF900F091F8002816D1D0252D068026F3
:10033000B6046E61FA24A400200001F07DF9AE61DC
:10034000200001F079F9F0E7D0231B068022920407
:100350005A61642001F070F9064C200000F014F995
:100360002378002BF0D1D0231B06802292049A61BF
:10037000EFE7C046B4040020F0B583B005000C00E0
:10038000D02636062027B7610120002101F028F988
:100390008020404228436B4698710F4D01236A46E6
:1003A000073269460631280004F036FB6B469C7123
:1003B00001236A46073269460631280004F02CFB07
:1003C0000120002101F00CF97761B420002101F037
:1003D00007F903B0F0BDC04600C00340F0B583B0DC
:1003E0000400D0252D062026AE610120002101F059
:1003F000F7F87F2020406B469871DC1D114F0123D8
:10040000220069460631380004F006FBA0200021D6
:1004100001F0E6F800236A46937101332200694631
:100420000631380004F0F8FA24780120002101F0A8
:10043000D7F86E611420002101F0D2F8200003B03B
:10044000F0BDC04600C0034070B582B0052000F08A
:1004500015F9D0252D0620266E626E61454C464961
:10046000200004F05DFA2268C7235340CF221A40CF
:1004700080235B0123431A600121022000F0E6F88B
:100480000121032000F0E2F80121042000F0DEF851
:100490005A213A20FFF770FF3220002101F0A0F826
:1004A0000220FFF79BFF0320FFF798FF0420FFF7D0
:1004B00095FF0520FFF792FF0620FFF78FFF002131
:1004C0001020FFF759FF1D211320FFF755FF2B4880
:1004D000002101F085F818211320FFF74DFF782047
:1004E000002101F07DF8AE610120002101F078F8D3
:1004F0006B46991DE2230B70E13B6A4607322000F0
:1005000004F08AFA0F20002101F06AF800240FE0BD
:100510001B4B1B5D6A46911D0B700123073215486A
:1005200004F07AFA0F20002101F05AF80134A4B245
:10053000144B9C42ECD90120002101F051F8D0234A
:100540001B0620225A61C820002101F049F82A2008
:10055000FFF744FF042802D0002002B070BD002144
:100560000C30FFF709FF07210F20FFF705FF0120DF
:10057000F3E7C04600C0034040420F0010270000D0
:10058000384A0010FD0F000070B584B0060000214D
:100590005020FFF7F1FED0231B0620229A61012094
:1005A000002101F01DF86B46991C50230B704F3B46
:1005B0006A460332244804F02FFA2320002101F078
:1005C0000FF800240FE06B46991C00230B706B465C
:1005D000DD1C01232A001C4804F01EFA2A7801AB16
:1005E0001A550134A4B20B2CEDD90120002100F0E2
:1005F000F7FFD0231B0620225A610120002100F0C2
:10060000EFFF01AB1A78D1093170D20801214A40BD
:1006100001210A407270DA781202997852187280B9
:100620005A79120219795218B2809A79B271DA792C
:10063000F2711A7A32725A7A7272DA7A12029B7AEA
:10064000D318738104B070BD00C0034010B583009F
:10065000084A944663441C6840226240C024144007
:100660008022520113431C60C000034B9C4660442F
:10067000416010BD04C001400040014010B501239D
:100680008340D0221206936293610521FFF7DEFFBB
:1006900010BD0000034B1B6802201840431E984108
:1006A000C0B2704700C00640EFF3108072B6034B33
:1006B0001B68002BFBD0BFF35F8F70472C0100D06D
:1006C000BFF35F8F024B00221A6080F310887047DF
:1006D0002C0100D0F8B506000C001500FFF7E4FF70
:1006E000E308F718F15C07222240012393400B42F4
:1006F00005D1DBB20B433B70FFF7E2FFF8BD2100F1
:10070000280001F045FE0000002307E0054A9A1882
:100710009200BFF35F8F0021116001331F2BF5D9C9
:100720007047C04640000034054A1078431CDBB2D5
:100730001370172B02D9130010221A707047C0468D
:1007400080020020074B9B68103080001950BFF3D7
:100750005F8FBFF35F8F044B0021196082F3108815
:100760007047C04600ED00E0240100D010B5091A22
:10077000081F0A4B9C466144094A914208D8C307A6
:1007800006D440104005400D064B184380B210BD02
:10079000054B064AA321064801F060FDFC07000056
:1007A000FE0F000000E0FFFF385A0010A85C0010A8
:1007B000685A001010B5091A04394C08090B08D101
:1007C0004905490D064A11430180064B23434380E6
:1007D00010BD054B054AAB21054801F03FFDC04661
:1007E00000F0FFFF00F8FFFFC45A00107C5C00100F
:1007F000685A001001238340034A10681840431EC2
:100800009841C0B27047C04600E100E0002904D022
:10081000034B1860034B18607047034B1860FBE7ED
:1008200080E200E000E100E080E100E010B501239B
:1008300083401800FFF7EAFF10BD0000024B9B68E1
:1008400010308000C058704700ED00E070B5040023
:100850000D00EFF3108672B60C4B1B68002BFBD01B
:10086000BFF35F8F2000FFF7E9FF094B984201D0EB
:10087000A84205D1320029002000FFF763FF70BDB8
:10088000044B054A8621054801F0E8FC240100D00C
:10089000CD010010D45A0010C45C0010685A00103A
:1008A000F0B5CE46474680B583B006000D00EFF3A5
:1008B000108872B6564B1B68002BFBD0BFF35F8FBE
:1008C000544B9A6834001034A300D758524B9F42BF
:1008D00007D0AF4200D198E00197504BFB1A2F2B65
:1008E00009D9424639003000FFF72CFF03B0C0BCE5
:1008F000B946B046F0BD3000FFF77CFF81460021CD
:100900003000FFF793FFBFF35F8FEFF305810029FE
:1009100001D08C4211D10123019C9C430022A36889
:10092000AB4212D00622A256002A0DDB53009B18C0
:100930009B002200394CE418F1E73621384B394A44
:10094000FF31394801F08AFC2200AB4256D106251E
:100950006557002D38DB6B005B199A002F4B9B18F5
:100960009A68A260DA79E27106229A56A2719B799E
:100970005BB2002B0FDA2D48A0806B005B199B0047
:10098000264AD3182A4A11789971157049463000C1
:10099000FFF74CFFA5E7201D6B005B199B001F4A6A
:1009A0009B181A1D9B88D90A1C2907D15B055B156A
:1009B000023359005118FFF7D9FEDDE71D4B1E4ADF
:1009C000B121194801F04AFC002912D1002A0ED0A9
:1009D000FF239371194B9380154A1378A371184B19
:1009E0000E49641A644163431B0D1370CEE70A4F2E
:1009F000F2E7201D1349FFF7DDFEC7E76A21124B1E
:100A0000084AFF31084801F029FC034F69E7C04656
:100A1000240100D000ED00E0CD0100108402002090
:100A2000E85B0010945C0010685A001001BD0000E3
:100A300039070020D05B0010B45C001001BDFFFF3F
:100A4000AAAA0000BE0200201C5C001070B50121A3
:100A500001432E4BCB1A2F2B28D8EFF30583002B05
:100A60002BD0EFF3108C72B6294A1268002AFBD003
:100A7000BFF35F8F274A0400244D641B6441624327
:100A8000120D54B2244A92689B00D2588A421BD05D
:100A90000022032A32D853009B189B001B49CB1815
:100AA0009B795BB2A3421FD00132F2E7C7211B4BF7
:100AB0001B4A49001B4801F0D1FB92211A4B184AEE
:100AC000FF31184801F0CAFB134A92681749D15008
:100AD000174B1A7882711C70BFF35F8F0C4B00228A
:100AE0001A608CF3108870BD0D00530099188900AE
:100AF0006918FF268E710F4A8A80E9E7D1210E4BD3
:100B0000074A4900074801F0A9FBC04684020020BB
:100B1000240100D0AAAA000000ED00E0245C00102F
:100B2000605C0010685A00104C5C0010CD01001091
:100B30003907002001BDFFFF585C00100022044B64
:100B400002E0044902C30132072AFAD97047C046BD
:100B500000E400E080808080024B9C466144890074
:100B6000016070474000003410B50400FFF7DCFD61
:100B700001002000FFF7F0FFFF232371BFF35F8F19
:100B800010BD10B50400FFF7CFFD01002000FFF7F6
:100B9000E3FFFF23237100236371BFF35F8F10BD59
:100BA00070B505000C00080000F0D6FE09492000D1
:100BB00000F016FEFFF7B8FD074B9C46604480002E
:100BC00068602C75D0231B061B786B75A400034B43
:100BD000E55070BDE50E001040000034080500200F
:100BE0000A4B1A68EFF3108172B61368002BFCD021
:100BF000BFF35F8F054B1B68BFF35F8F00221A6046
:100C000081F3108840BF0020002170471C0700209E
:100C100010B5002922D003681B7B99421ED8174BC0
:100C20009C466144090183689C4661440C6849689C
:100C3000002A19D003681B7B9A4215D883680F4895
:100C40008446624412019A18106853680200012019
:100C50008B4201D80ED00020C0B210BD084B094A0B
:100C60003C21094801F0FAFA054B064A3C210648A6
:100C700001F0F4FAA242EFD8EDE7C046FFFFFF0F04
:100C8000945E001014610010405E001010B5002941
:100C90001ED0037B99421BD84B005B18033B0468B2
:100CA000A4466344002919D0002A1DD0914221D0C6
:100CB000002A25D0047BA24222D804685000801864
:100CC000033820188170197800291FD11A7010BDBF
:100CD000104B114A6821114801F0C0FA104B114A1B
:100CE0006F310E4801F0BAFA0F4B0E4A70210B48D3
:100CF00001F0B4FA0D4B0B4A7121084801F0AEFA2D
:100D0000044B054A6821054801F0A8FA41701A70A1
:100D1000DDE7C046B85E001080610010D45E0010B0
:100D20003C5F00105C610010485F0010545F0010D1
:100D300070B506000D001400002914D0002A14D04C
:100D4000806873689847002806D022002900300088
:100D5000FFF79CFF280007E02A0021003000FFF782
:100D600095FF200000E0100070BD0800FCE70000C7
:100D7000F0B583B00500009201930AAB1C780BAB71
:100D80001F78002C26D003685A7B944207D1012398
:100D9000002B19D1002C3BD1200003B0F0BD002C5A
:100DA0000CD01A7B944209D81A6863001B19033BC4
:100DB000D3189B78002BEBD00123E9E73E4B3F4A49
:100DC00068213F4801F04AFA3E4B3F4A67213F48BD
:100DD00001F044FA03689C7B002CDBD012D01A7B14
:100DE00094420FD862001219033A19688C46624483
:100DF00051789973002900D1D973002393705370EF
:100E00001370C7E72C4B2D4A68212D4801F026FAB4
:100E1000002C3AD02B681B7B9C4236D82C4BE31815
:100E20001B01AA6894466344009A1A60019A5A60AA
:100E3000089A9A60099ADA602E68002C2BD030D07C
:100E4000337B9C422DD863001B19033B32689446C8
:100E5000634400229A705A701A70717B220030002D
:100E6000FFF766FF7073844200D095E7287D009AF3
:100E7000019B00F0FDFC061E01D0002F17D00C9B3B
:100E8000002B00D188E71E7086E7124B124A3C21E6
:100E90000E4801F0E3F9114B114AA521084801F071
:100EA000DDF9054B054A6821054801F0D7F92868A6
:100EB000210000F015FFE2E7B85E0010806100102D
:100EC000D45E00106C5F00108C610010405E00105A
:100ED000FFFFFF0F945E0010146100103C5E0010D5
:100EE00070610010F0B5DE4657464E464546E0B507
:100EF0008BB00990002308938200B54BD658370079
:100F000052E0B44BB44A3F21B44801F0A7F9B44BC6
:100F1000B44A3C21B44801F0A1F9002901D10028CC
:100F200069D10021404600F0D1FEA04219D12A68C3
:100F30006B6806920793AB689846EB689A464346FF
:100F4000002B14D0002C18D03B681B7B9C4214D87B
:100F5000631EFA68D35C08931B02184338610020B3
:100F600015E0A24BA24A8E219F4801F077F9A14BD0
:100F70009F4A92219C4801F071F9994B9E4A412168
:100F8000994801F06BF900239A46984600207B6847
:100F9000BFF35F8F00221A6086F310884346002B50
:100FA00032D1002800D10CE100F0FAFB02000B1E48
:100FB000A7DB00200021069007917868EFF31086E8
:100FC00072B601680029FCD0BFF35F8F396888468C
:100FD0004C7B002CD7D09AD0097B8C4297D887497C
:100FE00065182D01B9688C46654428686968801ABF
:100FF0009941002991DD2A686B68099800F038FC56
:1010000000239A469846C2E7089B1B022343994651
:1010100051461800C04705000E007A68EFF3108BA8
:1010200072B6136859424B41D9B2002BF9D1BFF3C4
:101030005F8F002E1EDB002E46DD3B69002B47D064
:101040004B456DD100F0ACFB02000B1E6EDB52195C
:101050007341002B70DB002B72DB00210491013106
:101060000391029451460191414600913800FFF7E7
:101070007FFE4CE03B69002BDDD04B4514D1069A36
:10108000079B521BB341002B14DB002B16DB002106
:10109000049101310391029451460191414600911E
:1010A0003800FFF765FE32E0554B514AA1214E480A
:1010B00001F0D4F801225242524BE6E7454B464A32
:1010C0003F21464801F0CAF8002E01D1002DB4D1CD
:1010D0003B68002C50D05A7B944237D10121002923
:1010E0004AD1DA7B002A4DD19A7B002A03D1DA7BE0
:1010F000002A5AD19C73DC73002C5CD03B681B7BAC
:101100009C4258D8FA68013C135D01331355002303
:101110003B617A68BFF35F8F13608BF3108843E7FE
:10112000374B334AA421304801F098F8294B2A4A1A
:101130003F212A4801F092F801225242314B8AE7BE
:10114000244B254A3F21254801F088F8002C0DD07A
:101150001A7B94420AD862001219033A186884462E
:1011600062449278002ABAD00121B8E7264B274A78
:101170006821274801F072F8264B274AF6212448B7
:1011800001F06CF8002A0AD0197B8A4207D8510076
:101190008A18033A19688C4662445470A4E71A4BC3
:1011A0001A4A68211A4801F059F81C4B1A4AFB21C7
:1011B000174801F053F80A4B0F4A41210A4801F041
:1011C0004DF80BB0F0BCBB46B246A946A046F0BDF8
:1011D00008050020505D0010E06000106C5D0010FC
:1011E000945E001014610010405E0010945F0010C7
:1011F000F8600010AC5F001038610010FFFFFF0FB7
:10120000B85F0010FFFFFF7FB85E00108061001024
:10121000D45E0010F45F00104C61001018600010E4
:1012200010B50C4B5B68002B04D00A210A48FFF76D
:1012300093FC10BD074C2300084A1021206800F0E1
:1012400055FC032000F0A0FA03212000FFF7A8FCC2
:10125000EBE7C046CC0200201C070020110C001058
:1012600010B5064B5B68002B01D0044810BD044B41
:10127000044A5E21044800F0F1FFC046CC02002081
:101280002C60001020610010405E0010F0B5DE46BA
:1012900057464E464546E0B58BB0804616001F00C7
:1012A000149B9A46159B994616AB1B789B461F23A9
:1012B00002AA9446634400221A702BE0002809D049
:1012C00042461268127B904204D8421E4146C968C9
:1012D0008A5C41E0404B414A4121414800F0BEFF59
:1012E00007984CE0361BAF41002F07DB002F11DAC7
:1012F0003C4B3D4A3F213D4800F0B0FF012676427D
:101300003B4FF3E7374B384A3F21384800F0A6FF00
:10131000002F4FDB43465A68EFF3108472B6136810
:1013200059424B41D9B20791002BF8D1BFF35F8FDF
:101330001F3302AA94466344049300230393029349
:101340004B4601935346009332003B004046FFF763
:101350000FFD031EB2D1020041464968BFF35F8F03
:1013600000250D6084F31088002B29D01F2302A9CB
:101370008C4663441B78002BB2D112021043002B21
:1013800020D05B46002B1DD04946D04704000D00FD
:1013900003000B431DD00029A4DB00F001FA060076
:1013A0000F1EAFDB36196F41002FB1DA01267642EE
:1013B0000F4FADE70B4B0C4A3F210C4800F04EFF9E
:1013C000012040420BB0F0BCBB46B246A946A04645
:1013D000F0BD0798F6E7C046945E00103861001033
:1013E000405E0010505D0010E06000106C5D001069
:1013F000FFFFFF7FF8B504004268EFF3108572B677
:10140000136858424341D8B2002BF9D1BFF35F8F24
:10141000CBB22268567BB3421BD10120002848D0B2
:10142000206988422BD0090AC9B2002B2ED020682F
:10143000007B83422AD8581EE668305C88422BD055
:1014400000206368BFF35F8F00221A6085F3108865
:10145000F8BD002B0DD0167BB3420AD85E00F618FB
:10146000033E1768BC466644B678002ED6D00120ED
:10147000D4E7134B134A6821134800F0EFFE95217F
:10148000124B134A4900134800F0E8FE124B134A6E
:101490004121104800F0E2FE1900100000F020FC8D
:1014A0000028CED132210E4B094AFF31094800F005
:1014B000D5FE23698B42C4D100232361C1E7C04616
:1014C000B85E001080610010D45E00105060001003
:1014D000C8600010405E0010945E0010386100107B
:1014E00074600010F0B587B006000F00EFF30583BD
:1014F000002B1FD106246442E517A4197D418D42BB
:1015000002D803D1844201D900240025002D14DB28
:101510000494059500F044F902000B1E13DBA41A95
:101520009D41002D17DC14D03000390000F044F943
:1015300007B0F0BD234800F02BFF234B234A3F2187
:10154000234800F08BFE204B204A3F21204800F02A
:1015500085FE002CE8D0FFF783FE00230293019361
:101560001C4B0093049A059BFFF790FE002818DAA5
:10157000DAE7002300E00023002BD5D1164B1A68D0
:10158000EFF3108172B61368002BFCD0BFF35F8FAE
:10159000114B1B68BFF35F8F00221A6081F3108824
:1015A00020BF0499059A0D4B5B6A9A42E3D80B4819
:1015B000806A884203D29A42DBD00123DCE7012310
:1015C000DAE7C04678600010505D0010E06000105F
:1015D0006C5D0010E10B00101C070020004005406E
:1015E00070B504000D0000F0DBF802000B1E0ADBF2
:1015F000200029008018594100290ADB00290CDB52
:10160000FFF770FF70BD084B084A3F21084800F003
:1016100025FE012040420749F0E7034B034A3F21E2
:10162000034800F01BFEC046505D0010E060001053
:101630006C5D0010FFFFFF7F10B5FA2292000023BF
:10164000002102F0F5FDFFF7CBFF10BD70B584B0AF
:1016500005000C00EFF30583002B1ED1FFF700FE01
:10166000002302930193224B00932A002300FFF7EB
:101670000DFE061E23DD20BFFFF7F2FD3100FFF750
:10168000B9FE1C4B5B6A9C422DD81A4A926AAA4248
:101690002CD29C4225D0012026E0164B5B6A994251
:1016A00009D8144A926A824207D2994201D0012095
:1016B0001AE0002018E0002016E0012014E00D4B95
:1016C0005B6A9C4209D80B4A926AAA4207D29C42A2
:1016D00001D0012008E0002006E0002004E0012005
:1016E00002E0002000E0002004B070BD0120FBE714
:1016F000E10B00100040054070B5EFF30580103895
:10170000EFF3108C72B61A4B1B68002BFBD0BFF3A3
:101710005F8F01221300834016494B6316490B600B
:10172000164909780C00C440224214D0114A546A68
:101730008200134D5259944206D38200114C125923
:1017400099430E4B197007E00A4A031D9B009958F4
:101750009950002200E00022BFF35F8F044B00216C
:1017600019608CF31088002A00D0904770BDC046E5
:10177000280100D0004005403C7005403A07002099
:10178000200700207404002010B50100024A03481D
:10179000FEF7A0FF10BDC046A4610010380700206E
:1017A000044B5B6A034A906A1900536A9942F9D163
:1017B0007047C04600400540084B5B6A01E0074B9C
:1017C0005B6A8B42FBD301E0044B5B6A8B4203D123
:1017D000024B9B6A8342F7D37047C04600400540E6
:1017E00070B504000D00EFF3108672B61B4B1B683A
:1017F000002BFBD0BFF35F8F002D1CD02000FFF724
:101800001DF8174B83420BD019002000FFF71EF87C
:1018100001212000FFF70AF80123A340114A1360B9
:10182000A400114BE550BFF35F8F0C4B00221A60F0
:1018300086F3108870BDA2000B4B0021D15001220D
:10184000A2400A490B7893430B7005492000FFF72B
:1018500027F800212000FEF7E9FFE4E7280100D087
:10186000F916001038600540740400203A07002083
:10187000F0B5DE4600B584B00400150001921E00EC
:101880000293FFF78DFF03958E4202D84ED1854219
:101890004CD9EFF3108B72B6274B1B68002BFBD093
:1018A000BFF35F8F254A17780125A540EBB23B4374
:1018B0001370234B5D63221D92000199D150A20049
:1018C0002049029850501B6A2B4212D11C4B1B6CB2
:1018D0002B4208D00020BFF35F8F174B00221A6005
:1018E0008BF3108823E0184B184AC521184800F0E4
:1018F000B5FCFFF755FF8E4214D802D1039B8342FB
:1019000010D80E4B1B78BB420ED00D4B1D625D6391
:101910001F2004400123A3400E4A1360074B1F7091
:101920001E38D8E70020D6E70120D4E7012004B014
:1019300080BCBB46F0BDC046280100D03A0700205D
:101940000040054020070020C86100104C620010D4
:10195000EC61001080E200E0EFF3108C72B60B4BEC
:101960001B68002BFBD0BFF35F8F01238340084A25
:10197000136208490A789A430A70BFF35F8F034BDA
:1019800000221A608CF310887047C046280100D0EE
:10199000004005403A07002010B500291ED0037B07
:1019A00099421BD84B005B18033B0468A446634470
:1019B000002919D0002A1DD0914221D0002A25D01B
:1019C000047BA24222D804685000801803382018F3
:1019D0008170197800291FD11A7010BD104B114A5F
:1019E0006821114800F03AFC104B114A6F310E4843
:1019F00000F034FC0F4B0E4A70210B4800F02EFC17
:101A00000D4B0B4A7121084800F028FC044B054A95
:101A10006821054800F022FC41701A70DDE7C046DD
:101A2000B85E001070630010D45E00103C5F0010C0
:101A30005C630010485F0010545F001070B5060032
:101A40000D001400002914D0002A14D08068736897
:101A50009847002806D0220029003000FFF79CFF9D
:101A6000280007E02A0021003000FFF795FF200042
:101A700000E0100070BD0800FCE7000010B5002376
:101A8000437301338373037BC3730123027B9A4245
:101A900014D9002B0CD0027B934209D85A00D218DB
:101AA000033A01688C4662440133DBB25370EDE7C0
:101AB0000B4B0C4A68210C4800F0D0FB002A09D0DF
:101AC000924207D8016853009A18033A8A180023F3
:101AD000537010BD024B034A6821034800F0BEFB5F
:101AE000B85E001070630010D45E001010B5017372
:101AF00042608360FFF7C2FF10BD000070B50400B4
:101B0000081E00D170BD002934D0237B994231D802
:101B10004B005B18033B2268944663445A78002AC2
:101B2000F0D02DD0237B9A422AD853009B18033B38
:101B300021688C4663445D7800215970002825D0C7
:101B4000237B984222D843001B18033B21688C4614
:101B500063440021597001002000FFF76FFF060069
:101B600029002000FFF7CAFF020031002000FFF724
:101B700065FFC7E7084B094A6821094800F06EFB7A
:101B8000054B064A6821064800F068FB024B034AF1
:101B90006821034800F062FBB85E0010706300101B
:101BA000D45E001070B505000C00160000292FD07F
:101BB00034D0037B994231D84B005B18033B026859
:101BC000944663445A78002A2ED19A78002A31D15B
:101BD0001978FFF793FF0300002E0AD0EA7B002A52
:101BE0002ED1AA7B002A03D1EA7B002A3BD1AC7319
:101BF000EC73002B3DD1002C4FD02B7B9C424CD85A
:101C00002B6861000C19033C1C190023637070BD24
:101C1000254B264A3821264800F020FB254B264A32
:101C20006821264800F01AFB254B204A3A2120481B
:101C300000F014FB234B1D4A3B211D4800F00EFB16
:101C4000002A0AD0297B8A4207D851008A18033A11
:101C500029688C4662445470C3E7164B164A6821C3
:101C6000164800F0FBFA184B104A4221104800F0C9
:101C7000F5FA002B0BD02A7B934208D843001B189F
:101C8000033B2A689446634400229A70B3E7094BE9
:101C9000094A6821094800F0E1FA064B064A682122
:101CA000064800F0DBFAC046686200104863001086
:101CB00070620010B85E001070630010D45E0010F7
:101CC000C4620010EC6200101860001070B50400CF
:101CD0000A00457B2900FFF765FF6073280070BD8F
:101CE00070B50400002967D0437B8B420ED00029D9
:101CF00011D0037B99420ED84B005B18033B02685E
:101D0000D0188378002B0CD1002056E00121FFF77A
:101D1000DDFF012051E0294B294A6821294800F0C4
:101D20009DFA002B20D0227B93421DD85A00D31855
:101D3000033B2268D2182568EB5C8B421AD0002B3B
:101D40001BD0227B934218D85A00D318033B226839
:101D5000D21853788B4216D0002BF0D11A4B1B4A65
:101D60006B211B4800F07AFA144B154A682115487C
:101D700000F074FA4378137007E0104B104A6821A2
:101D8000104800F06BFA437853700023837043705F
:101D900001222000FFF706FF0200617B814205D08F
:101DA0002000FFF74BFE6073012006E0094B074A55
:101DB0007121074800F052FA002070BDB85E001093
:101DC00070630010D45E0010585C00103063001087
:101DD000706200101063001070B504000D00062042
:101DE00000F07EF9C000290001F0E6FBC60908D02A
:101DF0000E4B9E4217D87F2318400130350046080D
:101E000000E001256562A6622C3480208001044335
:101E100000232360062000F063F98000A9018919DE
:101E200001F0CAFB70BD0026014DEBE7FEFF00008C
:101E3000FFFF0000002909D00A22064B9C4660449F
:101E4000434258414000044BC25270478022520026
:101E5000F3E7C0460080FCBF3007002070B50500E6
:101E60000C00062000F03CF9002829D0164B9D42BA
:101E700027D08022D203154B1A60154B1A60154BE0
:101E80009B6811009943FAD100212800FFF7D2FF87
:101E900021002800FFF7A0FF2C002C34E96A602203
:101EA0004A406E21114080225201224311600A4BA8
:101EB0002B6380239B01234310221A600323AB640E
:101EC00070BD80221204D6E70080034000E000408D
:101ED00000F0004000C0004001030000F8B5DE46FD
:101EE00057464E464546E0B505000F0092460A9A11
:101EF00093424ED31A0E91461E020A9A00233000D6
:101F0000494601F097FB80466C006419A4002F4BF2
:101F10009C4664446368834200D260602B1FDBB23E
:101F20009B46012B3BD9C0239B01234380221201F6
:101F30001A60AB00264A9958002905D0506901F073
:101F40003BFB01300138FDD153465A0123685A400A
:101F5000E0231A4080235B0123431A605A46012A7A
:101F600028D980239B012343802212011A60434613
:101F70006360424600233000494601F05BFBAD0040
:101F8000134B58510120F0BCBB46B246A946A046AF
:101F9000F8BD104B104A2D21104800F05FF9012FB9
:101FA000C1D1C0239B01234303221A60A368DB072E
:101FB000FCD5C9E72168794003220A401A60A2686B
:101FC0000123BB401342FAD0CBE7C046008000405B
:101FD0008C0400207C630010F063001090630010FC
:101FE00030B583B00C2000F017F9FEF753FB002842
:101FF0000DD0002304E099002D4A2E48885001336B
:10200000092BF8D92A4B2C4A5A6203B030BD2B4B0E
:1020100000229A6700F008F9294B01221A60274B29
:102020005B6C012BFBD1274B03221A60234B9B6B6C
:10203000012BFBD1013300930433234A01212348B0
:1020400000F054F805230093214A0121214800F0B3
:102050004DF8214B0093002202210420FFF73EFFA0
:102060001E4D00952B00002201210520FFF736FFB1
:10207000104C00942300002200210720FFF72EFFC0
:1020800000942300002200210820FFF727FF0A4BBD
:1020900000932300002200210920FFF71FFF009575
:1020A0002B00002200210620FFF718FFADE7C046F5
:1020B0008C040020006CDC021BB700000080004094
:1020C0003CB0004030B00040002F68590080024012
:1020D000008C864700C00240001BB70040597307C0
:1020E0008000014BC05870478C040020F0B5C646F4
:1020F00000B504000D00170098460C2001F05CFAB2
:102100000600394BFA18394B9A4241D843011B1A41
:102110009901C91AC90009188901380001F04CFA5F
:102120000200103A98235B009A4237D84346013B9D
:10213000062B39D8069B013B062B35D83F09B74201
:1021400038D343461E04069B1A0316432368002B0C
:1021500036DB274B9C4244D080225201254B1A602B
:10216000254B1A60254B9B6811009943FAD12560D5
:10217000A060231DC02292011A432123136023680B
:10218000002BFCDAE6600823136080BCB846F0BD83
:102190001B4B1C4A11211C4800F060F81B4B194ACC
:1021A0001921194800F05AF8194B164A1C211648F3
:1021B00000F054F8174B134A2321134800F04EF84F
:1021C00022683F231340AB42C3D1A3681B051B0DFC
:1021D0008342BED1E368EE22D2021340B342B8D1AB
:1021E000D3E780229201B9E780E84BD380F8A93287
:1021F00000C0024000E0004000F0004000C000408D
:10220000006400104065001060640010BC640010A1
:10221000D86400102465001080239B000343014A0A
:10222000D362704700800540064BAA2212011A6053
:102230002F22DA60044B054A1A60024B5B68002BC0
:10224000FBDA7047004002400060024000B0FA0034
:1022500000BEFDE710B5FFF7FBFF000010B582B030
:102260000C001900002A0CD0084B002A0BD0019258
:10227000009323000200064802F0ECF90120FFF76A
:10228000E7FF044BF1E7034AF1E7C0464C65001055
:102290005C6500105865001070B52B4B2B4A1A6016
:1022A0002B4B2C4A1A602C4B9A682A4B9343FAD139
:1022B0002A4C01E008CC9847294B9C42FAD3FFF7FF
:1022C0008FFE234B274A1A60234B9B68DB43DB01BD
:1022D000FAD1254B40229A675A671A67DA66234C6F
:1022E00009E0234B234A86212348FFF7B7FF20004C
:1022F000FEF73AFC0834214B9C4209D22368002B9C
:10230000F5D0012BEDD12000FEF73BFC0834F2E7BD
:102310001B4CA1681B4DC022280002F043F8A560A9
:10232000EFF30583002B00D000BEFEF7EDF9FEF7BA
:1023300005FCFEF775FF144C01E008CC9847134BE1
:102340009C42FAD370BDC04600E00040BFCDFBFE0A
:1023500000F00040FE7F3C0000C000404003002031
:1023600050030020FFFFFF0100F001403803002070
:102370008C65001020660010AC6500104003002042
:1023800000ED00E000000020500300205403002076
:102390000FB400B583B0084802F02CF9049B002B61
:1023A00007D005A90191180002F034F9034802F0A2
:1023B00021F90120FFF74CFF0C6600101C6600108D
:1023C000704710B5002802D00B684968984710BDC7
:1023D0000100002007E083001B185B00501C086010
:1023E0001078C01830380A681378303BDBB2092BFC
:1023F000F1D97047F0B5DE4657464E464546E0B542
:1024000083B093461F000C9B9A460D9C0E9B9946E9
:102410000F9B9B0703D0B8460F00060022E00192F5
:10242000A34688464E46B9460700B44207D2551C1B
:102430004B4641462020B84701342A00F5E73D00CD
:102440004F465C46019B9B46B1464646B846370020
:102450002E0007E0013C551C5346185D43463900E9
:10246000B0472A00002CF5D135003E0047460F9BAF
:102470009B0707D4100003B0F0BCBB46B246A94688
:10248000A046F0BDB0464E46B9462F005D46531BF0
:10249000B342EFD2541C4B4641462020B84722009D
:1024A000F5E7F0B5CE46474680B585B094469846E8
:1024B0000C9D0D9C0EAB1B789946109A119B129E99
:1024C000B7071CD4002B0CD0F7070AD54F46002FB6
:1024D00002D10C37374204D0013B02E030272F55A0
:1024E0000134944201D21F2CF8D9F70707D59C423A
:1024F00005D21F2C03D830272F550134F5E7F706F6
:1025000015D5770505D4002C03D0944224D09C42E5
:1025100022D00F9A102A2BD00F9A102A30D00F9A5F
:10252000022A35D01F2C02D830222A5501341F2C04
:1025300005D84A46002A31D02D222A550134039667
:1025400002930194009543466246FFF753FF05B09E
:10255000C0BCB946B046F0BD621E012C06D00F9F2C
:10256000102F01D01400D4E7023CD2E71400D0E7CA
:10257000B206D1D41F2CCFD878222A550134D1E706
:10258000B206CCD51F2CCAD858222A550134C9E727
:102590001F2CC7D860322A550134C3E7720703D510
:1025A0002B222A550134CAE73207C8D520222A55E2
:1025B0000134C4E7F0B5DE4657464E464546E0B521
:1025C00093B081468A46089209931CAB10CB1B78C6
:1025D0009B461E9D219B9846002C03D1102342460A
:1025E0009A4390468023DB0046461E4042461A42EC
:1025F00012D0002C22D000260EE03033D9B2771C46
:102600000AAB99552900200000F0D6FFAC4216D342
:102610001F2F14D83E0004002900200000F0CCFF3A
:10262000CBB2092BE9D94246920605D54121C918FA
:10263000C9B20A39C9B2E2E76121F8E72700434687
:102640000693209B05931F9B049303955B4602937F
:1026500001970AAB0093099B089A51464846FFF739
:1026600020FF13B0F0BCBB46B246A946A046F0BD61
:10267000F0B5DE4657464E464546E0B595B0089063
:1026800009910A920B931E9E1F9C20AB1B789B46C0
:10269000229B9946239D269B9A463300234303D1D0
:1026A000103352469A4392468023DB0057461F4020
:1026B00052461A4219D0330023432DD0002714E08C
:1026C0003033DAB27B1C98460CABDA554A462B0005
:1026D0003000210000F0AEFFA5421FD819D04346BC
:1026E0001F2B1BD8474606000C004A462B00300023
:1026F000210000F09FFFD3B2092BE1D95246920688
:1027000005D54122D218D2B20A3AD2B2DAE7612212
:10271000F8E7B145E3D901E0002398465346069314
:10272000259B0593249B04934B4603935B4602939E
:10273000434601930CAB00930B9B0A9A09990898A6
:10274000FFF7AFFE15B0F0BCBB46B246A946A046A7
:10275000F0BD0000F0B5DE4657464E464546E0B5B2
:1027600091B083468A460C9298461A9C08941B9D09
:10277000099522002B002000290001F0E6F900282D
:1027800000D0E5E001225242D74B2000290001F0A1
:10279000D7F9002800D0DBE001225242D34B2000C1
:1027A000290001F0B7F9002800D0D1E00022002371
:1027B000089E3000099D290001F0ACF9002800D0E6
:1027C000DDE008980999069007918023DB001E9AA6
:1027D0001A400D921E9A1A4201D106231C930698A4
:1027E000079904000D000A000600024300D1D1E061
:1027F000080D4005400DBE4CA44660440A03120B70
:10280000BC4B13431F0001F0B3F9BB4ABB4B01F0B3
:102810003EF9BB4ABB4B01F013F904000D00002246
:10282000B94B3000390001F002F9B84AB84B01F059
:102830002EF902000B002000290001F001F901F03F
:10284000AFF9814601F094F904000D00B14AB24B92
:1028500001F01DF90022B14B01F0F2F801F0A0F9EE
:102860000600AF4AAF4B2000290001F010F9040028
:102870000D00300001F07CF9AB4AAC4B01F007F9D8
:1028800002000B002000290001F0D1F804000D0027
:1028900002000B0001F0FBF80A900B91A44BF31817
:1028A00000261F0522002B002000290001F0C8F897
:1028B0000E900F9122002B0000208021C90501F00D
:1028C000B6F804000D0000229A4B0A980B9901F00B
:1028D000C0F80022984B01F0B3F802000B000A98F0
:1028E0000B9901F0B6F80022944B01F0A9F8020010
:1028F0000B000A980B9901F0ACF802000B002000C5
:10290000290001F09DF802000B000E980F9901F0CC
:10291000A0F80022774B01F093F832003B0001F061
:10292000B6F806000F0004000D00069A079B01F0A0
:1029300007F9002830D001235B429C46E144002285
:102940007D4B3000390001F084F804000D0023E0D5
:102950001E9B04931D9B03931C9B0293089A099B47
:102960000092019343460C9A5146584600F0FCF8F9
:1029700011B0F0BCBB46B246A946A046F0BD00234C
:10298000002406930794069680231B069C46654404
:1029900007951AE7002399464B466333C62B1ED88A
:1029A00004261E9B1B0526D52B0023430FD0644A0B
:1029B000644B0698079901F0BBF8002879D00022F3
:1029C000614B0698079901F0A5F8002871D01C9B6F
:1029D0004B4506DD4A46981A431E1C9303E0052624
:1029E000DFE700231C938023DB001E9A1A431E920C
:1029F0000026002399461D9B9E4264D29F1B022302
:102A00001E9A1A400A921E9A134202D0002E00D03B
:102A100000274B46002B07D022002B000698079971
:102A200001F017F8069007910022002308980999F1
:102A300001F070F8002848D1444B1E9A13400493CB
:102A400003971C9B0293069B079C009301944346AB
:102A50000C9A5146584600F087F8002E00D187E7BF
:102A60001E9B9B063DD54525441C4346020051460E
:102A70002800D8474B46DA179B1853400522059289
:102A8000013E0496002203920A3202924A46D00F77
:102A9000019000934346220051465846FFF78AFDB5
:102AA0000A9B002B00D163E702005F460C9E1D9D30
:102AB00054E01C9B002B9ED00D9B002B9BD01C9B9D
:102AC000013B1C9397E7002799E7069C079D22008E
:102AD000290080200006844661440B00069207937B
:102AE000AAE76525C0E7C046FFFFEF7FFFFFEFFFC6
:102AF00001FCFFFF0000F03FFB799F501344D33FE0
:102B0000B3C8608B288AC63F0000F83F61436F63FB
:102B1000A787D23F71A379094F930A400000E03F95
:102B20001655B5BBB16B0240EF39FAFE422EE63FB7
:102B3000FF03000000002C4000002440000018406B
:102B40002D431CEBE2361A3F80842E41FFF7FFFF36
:102B5000541C434651462020B8472200931BAB42E9
:102B6000F6D3100004E7C046F0B5DE4657464E46A1
:102B70004546E0B595B00690079193469946209F4B
:102B80001E9A1F9B1000190000F0DFFF002831D1B2
:102B900001225242BF4B1E981F9900F0BBFF002834
:102BA00037D101225242BC4B1E981F9900F0C8FF3A
:102BB00000283DD10022B94B1E981F9900F0C0FF9C
:102BC000002850D10022B64B1E981F9900F0A2FF9A
:102BD000002848D1002200231E981F9900F09AFF78
:102BE000002850D100239846229B5B0500D4B6E014
:102BF000002458E0229B0393219B0293032301931B
:102C0000A84B00934B465A4607990698FFF7F2FBEC
:102C10000EE1229B0393219B029304230193A24B79
:102C200000934B465A4607990698FFF7E3FBFFE0EF
:102C30000423229A1A4022990B4210D09B4B002A5F
:102C40000FD00422229903912199029101920093BD
:102C50004B465A4607990698FFF7CCFBE8E0944BA1
:102C6000EDE70322EEE7229B0493219B0393029757
:102C70001E9B1F9C009301944B465A460799069849
:102C8000FFF768FDD4E01E9A1F9B0020002100F092
:102C9000CEFE1E901F9101239846A5E70CAB302273
:102CA0001A55013F01341F2C01D8092FF6D81E9860
:102CB0001F9900F075FF050000F05AFF02000B009D
:102CC0001E981F9900F0B3FEFA007A4B9B181A6801
:102CD0005B680A920B9300F0DAFE0890099100F00D
:102CE00083FF060000F040FF02000B0008980999DE
:102CF00000F09DFE0890099100226F4B00F020FF2C
:102D000000282ED00136300000F02EFF02000B000C
:102D10000A980B9900F004FF002801D00135002625
:102D2000002F2CD1280000F023FF02000B001E987A
:102D30001F9900F07CFE06000F0000225E4B00F0A1
:102D4000E9FE002846D100225B4B3000390000F03C
:102D5000F7FE00283ED1EB073CD501353AE00627C7
:102D600046E70022544B0898099900F0D3FE00284A
:102D7000D6D1002E01D0F307D2D50136D0E7AA462E
:102D80001F2C11D8013F0A21300000F015FC651CF2
:102D900030310CAB19550A21300000F00DFC092E22
:102DA0000ED906002C00EBE755461F2C0CD87B1ED5
:102DB000002F09D00CAA302111551F000134F4E76F
:102DC0002B0055461C00F0E71F2C03D80CAB2E221D
:102DD0001A5501341F2C10D80A21280000F0C4FB1A
:102DE000661C30310CAB19550A21280000F0BCFBE1
:102DF000051E01D03400EDE734000323229A13406E
:102E0000012B1CD01F2C06D84346002B32D00CAB14
:102E10002D221A550134229B0393219B0293019486
:102E20000CAB00934B465A4607990698FFF7E2FA17
:102E300015B0F0BCBB46B246A946A046F0BD219BEA
:102E4000002B13D04346002B02D10C3313420FD07A
:102E5000219B013B2193190003E00CAB30221A5552
:102E600001348C42CED21F2CF7D9CBE72199F8E759
:102E70002199F6E7229B5B0704D50CAB2B221A5550
:102E80000134C8E7229B1B07C5D50CAB20221A557D
:102E90000134C0E7FFFFEFFFFFFFEF7F65CDCD41BE
:102EA00065CDCDC13C660010406600103466001050
:102EB00030660010286800100000E03FF0B5DE46E4
:102EC00057464E464546E0B593B082468B469046FF
:102ED0001193002900D1EBE200275546119B187889
:102EE000002800D1E7E2252809D07C1C43463A009F
:102EF0005946A847119B013311932700EEE7013390
:102F000011930024119A11780B00203BD8B210289D
:102F100003D88300D048C3589F460B00303BDBB238
:102F2000092B2CD92A292FD000230A93119B1A7818
:102F30002E2A39D000239A46119A1378683BD9B2C9
:102F4000122976D88B00C549CB589F4601231C43D4
:102F500001321192D6E702231C4301321192D1E7CC
:102F600004231C4301321192CCE708231C43013295
:102F70001192C7E710231C4301321192C2E711A836
:102F8000FFF726FA0A90D1E71C9B1A1D1C921868BD
:102F9000002804DB0A90119B01331193C6E702233A
:102FA0001C4343420A93F6E78022D20014435A1C82
:102FB00011925A781300303BDBB2092B04D92A2A2C
:102FC00007D000239A46B7E711A8FFF701FA824617
:102FD000B2E71C9B1A1D1C921868002804DB82466D
:102FE000119B01331193A7E70020F8E780235B00D2
:102FF0002343511C119152786C2A01D01C0018E017
:10300000C0239B001C430131119112E08023234314
:10301000511C11915278682A01D01C0009E0C0238C
:103020001C430131119104E080235B001C430132F9
:103030001192119B18780300253BDAB2532A00D96C
:103040002CE29300864AD3589F4680239B001C4362
:1030500001321192EDE780235B001C430132119293
:10306000E7E7782809D0582838D06F2838D0622868
:1030700038D010239C430A2600E01026582833D06D
:10308000692803D0642801D00C229443630501D53C
:103090000122944369282AD0642828D0A30500D5AA
:1030A0009FE0E30500D5B8E0630600D4CAE01C9AAF
:1030B000111D1C911168FF220A4005940A9B04937C
:1030C00053460393029600230193009243463A002D
:1030D00059462800FFF76EFA070027E01026CDE7D3
:1030E0000826CBE70226C9E720221443C8E7A30538
:1030F00020D4E30550D4630666D51C9A111D1C919B
:103100001168FF220A40D317D118594005940A9B31
:103110000493534603930296D20F019200914346C3
:103120003A0059462800FFF745FA0700119B013382
:103130001193D3E61C9BDA1D07218A431100083145
:103140001C91116853689C46DB170C930D930C9AE5
:103150000D9B100048400E90624653400F930E980E
:103160000F990C9A0D9B801A99410E900F9108941B
:103170000A9B0793534606930496002305936346E0
:10318000DA0F02920090019143463A005946280016
:10319000FFF76EFA0700C9E71C9A111D1C9112680F
:1031A000D317D118594005940A9B049353460393AF
:1031B0000296D20F0192009143463A0059462800E8
:1031C000FFF7F8F90700B1E7230605D51C9A111D92
:1031D0001C910023D25E96E71C9A111D1C91126867
:1031E00091E71C9BDA1D07218A43110008311C91CD
:1031F00008940A9B0793534606930496002305936D
:103200000293136854680093019443463A00594668
:103210002800FFF72DFA070088E71C9A111D1C9162
:1032200005940A9B0493534603930296002301934B
:103230001368009343463A0059462800FFF7BAF94D
:10324000070073E723060DD51C9A111D1C91126807
:103250001204120C31E7C046486600108C6600105C
:10326000D86600101C9A111D1C91126825E746288B
:103270001AD01C9B0733072293431A0008321C9272
:1032800004940A9A0392524602925C681B68009367
:10329000019443463A0059462800FFF765FC0700B1
:1032A000119B0133119319E620231C43E1E76728A2
:1032B00001D0472802D180231B011C43452801D09F
:1032C000472801D120231C431C9B0733072293432B
:1032D0001A0008321C9204940A9A039252460292EF
:1032E0005C681B680093019443463A0059462800E5
:1032F000FFF730FA0700119B01331193EEE502232B
:103300001A002240924623421FD001241C9B1A1D02
:103310001C927A1C9146187843463A005946A847B1
:103320005346002B16D1119B013311934F46D5E51F
:10333000561C434659462020B847230032005C1CE7
:103340009D42F5D83D001700E0E701233A002F0029
:103350000A9DF4E74A46A9460A9D06E0571C4346E3
:1033600059462020C84734003A00661CA542F5D8CB
:103370004D469146D7E71C9B1A1D1C921B68994627
:103380005346002B00D1013B4E4601E001361300AD
:103390003278002A02D05A1E002BF7D14B46F21A7F
:1033A00010928023DB0026001E401C4203D05245B1
:1033B00001D95346109302231A0022400B92234254
:1033C00005D03A0037004C46A946554620E03A0061
:1033D000109B5F46B3462E0006E0551C434639005D
:1033E0002020B04723002A005C1C0A999942F4D897
:1033F00035005E46BB46109437004C46A9465546FC
:1034000006E01D000134561C43465946C8473200A9
:103410002078002804D0002FF4D06B1E002DF0D1AE
:1034200017004D460B9B002B03D1119B01331193C9
:1034300054E50A9F109B06E0561C4346594620203F
:10344000A847230032005C1C9F42F5D81700ECE728
:1034500021231C431C9B1A1D1C921B68009305947E
:1034600008230493534603931023029300230193EC
:1034700043463A0059462800FFF79CF80700119B85
:10348000013311932AE57C1C43463A005946252016
:10349000A847119B0133119327001FE57C1C43466D
:1034A0003A005946A847119B01331193270015E5AF
:1034B0000A4B9A4610E5AA46474502D343465A1E90
:1034C00000E03A00434659460020D047380013B088
:1034D000F0BCBB46B246A946A046F0BDC1230010D1
:1034E00000B585B0029003910121009313004A4278
:1034F00002A90248FFF7E2FC05B000BDC32300109B
:1035000001480421014B1847000300203135001009
:1035100010B5010018231B8814221088984710BD8D
:1035200010B5010018231B8816221088984710BD7B
:10353000F0B5C64600B507000E00002501239846E9
:1035400000E00135B5420AD2AC003C192068FFF713
:10355000DFFF20600028F4D100239846F1E74046C1
:1035600080BCB846F0BD0000124A936F9B0815D28C
:103570009066D166002905D0FFE7FFE7FFE7516FAE
:10358000106F704704B580210906C217514000280A
:1035900000D0C84301F038FA002104BDF0B5146E24
:1035A000556E576F166FFFF7E3FF14665566576742
:1035B0001667F0BD000000D0114A936F9B0813D22C
:1035C00010665166002905D0FFE7FFE7FFE7516F5E
:1035D000106F704704B5002801D00020C04301F0EF
:1035E00013FA002104BDC046F0B5146E556E576F36
:1035F000166FFFF7E5FF1466556657671667F0BD4F
:10360000000000D094464A4A926F9208624601D266
:1036100028E0C046F0B5464E346E756E776F366F53
:1036200000F020F89446424A1466556657671667BC
:103630006246F0BD94463E4A926F9208624601D2BD
:1036400054E0C046F0B53A4E346E756E776F366F03
:1036500000F04CF89446364A14665566576716676C
:103660006246F0BD002B24DB11D000293EDA00B504
:10367000C943404200D1013100F038F8C94340420B
:1036800000D10131DB43524200D1013300BD002A99
:10369000EBD1002801D1002905D00020C90FC907AE
:1036A00001D1C043410800B501F0A6F90022002372
:1036B00000BD00B500290ADBDB43524200D10133D3
:1036C00000F014F8C943404200D1013100BDC943A4
:1036D000404200D10131DB43524200D1013300F0BE
:1036E00005F8DB43524200D1013300BD002923D14C
:1036F000002B18D1002A0CD0BC460D4F38667A66D4
:1037000000210023FFE7FFE7FFE77A6F386F674686
:103710007047002801D00748010000B501F06CF99E
:103720000022002300BD02000B0000200021704792
:10373000000000D0FFFFFFFF002B00D0BFE0130C04
:1037400028D1002AE7D080B4114F39667A66FFE7A6
:10375000FFE730B4040C7B6F396F1B0423433B66D7
:103760007A66FFE7FFE7FFE7C04684B27B6F3D6FF5
:103770001B0423433B667A66FFE7FFE7C04600234E
:103780002C042D0C7A6F386F00196941B0BC70475A
:10379000000000D0F0B594460025140E01D11202AD
:1037A0000835140F01D112010435940F01D1920094
:1037B0000235D40F01D152000135D40B0134254F0D
:1037C0007C66254C3C660E0C93B2FFE7FFE7FFE7F3
:1037D0003C6F6643360C7703BE467343DF0B5B04D6
:1037E000C01AB941130C7343DB18C91ACE086643DB
:1037F000360CB64493B273431F0F1B01C01AB94174
:10380000130C73431F0B1B05C01AB941860D8F02A1
:103810003E436643360C092D24DB520A7243801A5C
:103820007703460A6643360C16235B1BDE40DF40F7
:10383000BF1964466643821B704604350633010097
:10384000D940A840C01900D30131A24206D20023BA
:10385000F0BD0000000000D0FFFFFFFF121B013091
:10386000F3D3F1E709277F1BFE406446A2B27243FF
:10387000801A00D20139220C7243130C1204821AEE
:1038800099410B007046043513370100F940A840F8
:10389000801900D30131002B02D1A2420AD2F0BD1F
:1038A000013000D30131121BFAD2013BF8D1A24200
:1038B00000D2F0BD013000D30131121BF7E7F0B5A3
:1038C0001C0C00D080E00CB400251C0A04D11B02A3
:1038D000160E3343120208351C0B04D11B01160FC0
:1038E0003343120104359C0B04D19B00960F3343E4
:1038F00092000235DC0B02D192185B4101351C00AD
:10390000971864410134464F7C66464C3C660E0C69
:10391000FFE7FFE7FFE7C0463C6F6643360C7703DF
:10392000BE4697B27743C01B00D20139C01B00D2FC
:1039300001399FB27743C91BC91B170C77437E041B
:10394000FF0B801BB941CE086643360C0C2D33DBD0
:10395000B644120B1F053A431B0B97B27743C01BAB
:1039600000D201399FB27743C91B170C77433E043D
:103970003F0C801BB941860D8F023E4366432927C9
:103980007F1BFE400C3D7746AF40BF1930BCA2B252
:10399000ABB272437343801A9941220C7243130CE9
:1039A0001204801A994102000B000137001BA94143
:1039B000F9D2781E0021F0BD0C277F1BFE40774610
:1039C0007F0BAF40FF19E0E700245D1C07D0144FC8
:1039D0007D663966FFE7FFE7FFE7FFE73C6F95B2DB
:1039E0009EB265436643401BB141150C1E0C6543F6
:1039F000664336042F0C3E432D04401BB1419942CF
:103A000004D202000B0020000021F0BD01D1904241
:103A1000F7D3801A994101349942F2D3F6E70000B6
:103A2000000000D0FFFFFFFF48404140484018B46D
:103A30001B4B5B68FC46019308BD04DF033D00108F
:103A400018B4174B1B68FC46019308BD00DF0D3D01
:103A500000109446134A926F920809D2624618B435
:103A60000F4BDB68FC46019308BD0CDFC53F00101F
:103A70000C4AF0B5146E556E576F166F6246FFF71D
:103A8000EEFF084A1466556657671667F0BD18B40E
:103A9000034B9B68FC46019308BD08DF693E00109C
:103AA00018050020000000D0FFB5504042405040B3
:103AB00059404B40594000E0FFB5154F4C00640D94
:103AC00003D0BC4204D10C0314D80020090D090511
:103AD0005C00640D03D0BC4204D11C030AD8002250
:103AE0001B0D1B0501264B4009D44B4003D58B42CF
:103AF00000D18242FFBD9942FCD19042FFBD0B43F1
:103B0000DB1803431343F5D0C9434918FFBD000038
:103B1000FF07000000B5FFF7CFFF804100BDC046A2
:103B200000B5FFF7C9FF01D9002000BD012000BD8D
:103B300000B5FFF7B9FF01D9002000BD012000BD8D
:103B400000B5FFF7B1FF804100BD012040054A00EC
:103B5000121804D85A00121801D80020704701200A
:103B600070470020704700000021002805D17047F1
:103B7000C1174840401AFAD0C90713B5064B1B6855
:103B800098470CBC441CA2401005120B0349091BAA
:103B900009051943114310BD180600201F04000039
:103BA00010B54C00620D8023D218DB00D21A5B05E1
:103BB0007E2A10DD9E3A13DACC170903490819430F
:103BC0005242D140640001341532202A05DAD04037
:103BD0000843604310BD002010BD0846604310BD7F
:103BE000C80FC018013810BD18B4044B5B6AFC46FE
:103BF000019308BD24DF7541001000001805002066
:103C000070B513231C78012C14D0012C14DC022C69
:103C100002DC1F4A1F4B9A641F48FFF779FC1F4BB9
:103C2000186070BD99001A481A4A885001331F2B3A
:103C3000F8D9EAE70023FAE71948FFF771FC050015
:103C40001848FFF76DFC023803789B007F2B19DDC5
:103C5000802229000F4800F0A5FB022CD7D1124B7F
:103C60001A88B5231B029A4209D1104B1A88104BAF
:103C70009A4204D10F4B1A880F4B9A42C7D00020AA
:103C8000FEF786FB0D4B0E4A32210E48FEF7E6FA90
:103C9000C93C0010180500204C3300001806002015
:103CA000534400005346000054380000D838000048
:103CB000494600009C380000594600007868001012
:103CC0003C690010D868001007B56046002800D194
:103CD00000BE01880A0A0230DF2AFAD1C9B282087E
:103CE00004D3028840880004104300E00068024AC0
:103CF0005050039007BD0000180500200FB403BC0E
:103D00000CBCF0B50124E407634000E0F0B50C0DF5
:103D1000CF0F661E3605891B640503D3C943404295
:103D200000D30131640D03D0661CF60A07D0E41BF2
:103D300000207F00791C89078912803C24031D0D17
:103D4000DF0F6E1E36059B1B6D0503D3DB4352420E
:103D500000D301336D0D03D06E1CF60A07D0ED1BA6
:103D600000227F007B1C9B079B12803D2D032F1B95
:103D7000661B58D4A446202E46DA20371400BC40D7
:103D80001D00BD40F24033412A4380185941CB0FFA
:103D900005D0C943C04300226442504151416246AC
:103DA0004D0D28D10D0D07D100281FD024194041F9
:103DB0004941013A0D0DF9D0640006D3013000D31A
:103DC0000131002C01D140084000013A0BD4941C71
:103DD000E40A04D112051144DB071944F0BDD907E8
:103DE000204B194300E0D9070020F0BD0029DDD1A8
:103DF000002CDBD1F0BD0132C6074008CD072843B7
:103E00004908002EE1D0D9E73C2E29DA203E403780
:103E10001400BC4000D00124F24014431A00BB40FF
:103E20001C43D317ACE7AC46202F08DA2036040039
:103E3000B4400D00B540F84039412843A5E73C2F78
:103E40000CDA203F40360400B44000D00124F84092
:103E500004430800B1400C43C117EAE71000190001
:103E6000002494E70000F07FF0B50C0D661E3605C7
:103E7000891BE60A6405640D02D0651CED0A04D0B6
:103E8000002001210905803C2403A4461C0D671E67
:103E90003F05DB1BE70A6405640D02D0651CED0AD3
:103EA00004D0002201231B05803C24037740644496
:103EB00097B484B296B27443070C7E43150C6F43DB
:103EC00080B26843361802D3012000043F18300442
:103ED000350C00197D41844688B29AB250430C0CCF
:103EE00062431F0C7C438EB27E43921902D301269B
:103EF0003604A4191604170C3618674101BC81B2A8
:103F00009AB25143040C62431B0C5C4380B2584389
:103F1000121802D30120000424181004130C4018B6
:103F200063412D185E410020474106BC88B293B220
:103F300058430C0C6343120C544389B251435B1831
:103F400002D301210904641819041A0C09186241EA
:103F50006D1856410020474118BCF902720D1143FB
:103F6000F0026A0D1043ED020A0D03D16D194041B4
:103F70004941013B124E9B1B7600B3420ED26D00AD
:103F800007D30130002671416646354301D1400810
:103F900040001B05C918E4072144F0BD0BDA0133CA
:103FA00006D1013004D101314F0D01D04908F2E7AB
:103FB000E1070020F0BD013631050020EBE70000ED
:103FC000FF030000F0B51C0D671E3F05DB1BE70A71
:103FD0006405640D02D0661CF60A04D00022012399
:103FE0001B05803C2403D0252D060026F6432E66B3
:103FF0001E096E66CE0FF619B44649004F0D02D069
:104000007E1CF60A03D000200021403F3F033E1BE8
:10401000B600B444013F7F05C91B49082E6F013625
:1040200076089C02950D25437543ED137543AD133A
:1040300001356D10F603761B0CB4CC02450D2C43F4
:10404000A2B2B3B25A43270C7B43350C6F43A4B2E0
:104050006C431B1902D3012424043F191C041D0CBA
:10406000A4187D4124196D41009A91B2ACB261430C
:10407000170C7C432B0C5F4392B25A43A41802D313
:1040800001221204BF182204230C52187B41019C08
:104090006C431B19520ED9010A434401A01A81B284
:1040A000B2B2514303145A43360C734387B2774379
:1040B000D617D21900277E4136049B191704160C17
:1040C0007F185E417316ED18F301002680337541A9
:1040D000A90F06D16400690AE8055B0A184309D2F2
:1040E0002FE00422944480337541A90AA8059B0A55
:1040F000184326D3404149412404009A019B0D00F6
:104100005543641B4343E41A95B286B27543170CBA
:104110007E43030C5F4392B25A43B61802D3012286
:104120001204BF183204330C52197B4152429C4195
:10413000002C02D40022013051414008CA0710432C
:10414000490802B06246D7079210084BD218084BB4
:104150009A4203D212058918C919F0BD0020002A1D
:1041600001DC3900F0BD01331905F5E7FD0300005E
:10417000FE070000002200B5203200F004F808001D
:1041800000BD000000220B150AD410B5944600F0C3
:1041900031F81414013400DA0021CB17144C2047F5
:1041A0000020002170476244343A0CD40C2A07DA0C
:1041B00004009140904052422032D440214310BD2F
:1041C000D843D94310BD203207D40C469440524204
:1041D00020321141D040204310BD0800C9172032C1
:1041E00003D452422032104110BD1800190010BDF6
:1041F000A74100100A0DCC0F531E1B05C91A52050A
:1042000003D3C943404200D30131520D03D0531CA4
:10421000DB0A07D0121B00206400611C8907891289
:10422000803A1203014BD21A70470000FF030000CE
:1042300051434343C9188C46110C83B24B4310B40D
:10424000040C614392B280B2504362431C041B0CC5
:10425000001910BC59411304120CC018514161449B
:104260007047000070B513231D782A48FFF758F9EE
:104270000400012D11D0012D09DDA31E1B789B0028
:104280007F2B40DD80222100234800F08BF823485B
:10429000FFF73EF9224B186070BD542201001E4802
:1042A00000F080F81F4B1A881F4B9A421CD1A7239D
:1042B0009B011A881D4B9A4216D11D4B1A881D4B23
:1042C0009A4211D11C4B1A8894239B019A420BD11C
:1042D0001A4B1A881A4B9A4206D11A4B1A681A4B73
:1042E0009A4201D1152307E01848FEF751F89900CA
:1042F0001748094A885001331F2BF8D9144A064B36
:104300001A62DA61B7E7134B134A42211348FDF7EB
:10431000A5FFC046534600001C0600204C33000099
:1043200018060020EE290000C40F0000C20D000096
:10433000962B0000C0B50000182B0000CC2A00000E
:1043400010B50000FC2C000051ED8764586500108A
:104350006143001050690010E86900108469001082
:1043600007B56046002800D100BE01880A0A023065
:10437000DF2AFAD1C9B2820804D302884088000437
:10438000104300E00068024A5050039007BD00004F
:104390001C06002001480421014B1847100300208F
:1043A00031350010014B5B681847000010030020F6
:1043B00010B50300080011001B68984710BD0000ED
:1043C000F8B507000D001600437D002B02D0002435
:1043D00000200CE003681100280098472DE03B7D89
:1043E00010E0022115483B689847601C0134B44234
:1043F00014DA002CF3DD2B19013B1B780D3B5A42DC
:104400005341DBB22A5D0A2AF0D1002BEED1A04243
:10441000E7DA211A28183B689847E2E7B04203DA46
:10442000311A28183B689847002E06DDAD19013D6A
:104430002B780D3B5A4253413B75F8BD7C6A001006
:1044400070B505000368002B16D00C4B1C6805E006
:10445000290004C92000FFF7B3FF2469002C09D00C
:104460002368002BF9D0064B1B68002BF0D0A34229
:10447000F3D1EDE700232B6070BDC046000500209E
:104480000405002070B505000C000B68802B05D0DA
:1044900021684B1C23606418257170BD0800FFF76C
:1044A000CFFFF5E710B5FDF77BF902000B1E0BDB24
:1044B0000D48002112184B41002B0BDB002B0DDBAC
:1044C0000A4800F0B1FA10BD094B0A4A3F210A48D8
:1044D000FDF7C4FE01225242084BEFE7044B054AA8
:1044E0003F210548FDF7BAFE40420F003803002087
:1044F000505D0010646A00106C5D0010FFFFFF7FCC
:1045000010B5024800F070FA10BDC0463803002014
:10451000F0B5CE46474680B583B006000D00904604
:104520001C00FFF7BFFF81466B1C05D0002C08D094
:10453000194F1A4B1C6807E0300000F025FA0500FF
:10454000F4E7174FF5E72469002C17D02368002BF8
:10455000F9D0144B1B68002B01D0A342F3D12A00E1
:1045600031002000B8474346002BECD06B46D91DE4
:104570000A230B7001222000B847E4E74B46002BCA
:1045800007D16B1E9D41E8B203B0C0BCB946B0462E
:10459000F0BDFFF7B5FFF4E7B143001000050020C0
:1045A000C143001004050020094A01E010331A003D
:1045B0001368002B08D08342F8D1002907D1036982
:1045C00013600023036102E0002900D010607047EF
:1045D0000005002010B5064B1C6801E098472469CF
:1045E000002C03D06368002BF8D1F8E710BDC0465B
:1045F0000005002070B5050000F0C6F90400002396
:10460000012201002800FFF783FFFFF7E3FF2000EE
:1046100070BD000070B5A2B004000E00FFF742FFAD
:104620000500002301933300220001A90848FEF78A
:1046300057FF040001A8FFF703FFFFF7CBFF002D92
:1046400002D1200022B070BDFFF75AFFF9E7C04643
:10465000854400100FB400B583B004A901C90191CD
:10466000FFF7D8FF03B008BC04B0184710B500F03E
:10467000F9F8012010BD0000F0B583B005000E0070
:1046800000240FE06B46D91D0D230B70002000287D
:1046900016D193699B06FCD40B781360013001316D
:1046A000F5E70134B44219DA0D4B1A682F5D0D4B52
:1046B000D31859424B415B000B495B5EBB42E1D0D2
:1046C0006B46D91D0F7000200028EAD193699B0624
:1046D000FCD40B78136001300131F5E703B0F0BD75
:1046E000340700200080FCBF30070020F0B583B005
:1046F00006000F00002504E06B4607331B782B7083
:104700002500BD4215DA174B1A6893691024210061
:1047100019401C420DD16C1C75196B46D81D00291F
:10472000EAD19369DB06FCD41368037001310130D0
:10473000F5E70D4B1B68002B0CD00A4B1A68502371
:10474000936311003431536B38221A4080235B018C
:104750000B431A60002D02D0280003B0F0BD033DCA
:10476000FAE7C046340700208404002010B5064B49
:104770001B68002B06D0054A126800219163044A89
:104780001068984710BDC0468404002034070020FC
:104790008804002070B504000E001C4B1B681C4AE6
:1047A00098184242504114300500002C03D0194A99
:1047B0001268002A06D0002C19D0164B1C60164B2C
:1047C0001E6070BD1549FCF741F801212800FCF777
:1047D0002DF80E4B1A685023936311003431536B3C
:1047E00038221A4080235B010B431A60E5E7094A2F
:1047F0001268002AE1D000229A6300212800FCF709
:1048000015F806492800FCF74BF8D6E734070020D6
:104810000080FCBF84040020880400206D47001045
:1048200070B50D001C000D4B1860002A0BDA002C2F
:104830000EDA0A4B18682900FDF710FB0121084821
:10484000FFF7B2FE70BD02211000FBF7FFFEEEE79E
:1048500002212000FBF7FAFEEBE7C04634070020F8
:104860002003002010B5064B1B78064B1B78E12176
:104870000123002249020448FFF7D2FF10BDC046C1
:10488000DC6A0010E06A001000400340F0B5D64634
:10489000474680B583B0824688460620FDF720FC57
:1048A0000700022400E02C00FE2C1CD801970026F3
:1048B000A51C2802424600230021FFF7B9FC00296D
:1048C00003D1B142EFD1B842EDD980256D00012D61
:1048D0000CD96E1E210071433800FEF76DFE404575
:1048E00004D83500F3E780256D00F0E753461C61DE
:1048F0006B1E1B02524612685340FF2212021340E5
:104900008020400152461043036029006143380073
:10491000FEF752FE03B0C0BCBA46B046F0BD000080
:1049200010B50400144B984222D080229202134BFF
:104930001A60134B1A60134B9B6810009843FAD10E
:104940002000FFF7A3FF226807235340CF221A401D
:1049500080235B0123431A602200243280239B01C1
:104960001A430321116004341C430223236010BD49
:1049700080225202DBE7C04600C0034000E0004056
:1049800000F0004000C0004010B583070AD00300CB
:10499000032102E001330B4205D01A78002AF9D135
:1049A000181A10BD030019680C4A0D4C8A188A4366
:1049B00022420FD15968094A04338A188A43224295
:1049C00008D15968054A04338A188A432242F1D033
:1049D00000E001331A78002AFBD1E1E7FFFEFEFE7A
:1049E00080808080F8B5C04601B40248844601BC8E
:1049F000604700BFC901002001B40248844601BCE1
:104A0000604700BF5902002001B40248844601BC3F
:104A1000604700BF5902002001B40248844601BC2F
:104A2000604700BF1502002001B40248844601BC63
:084A3000604700BF9501002062
:104A380001048E966E773EFE7E5F1DB8F2664EFFCD
:104A48005D19B0C20469542AD62EBFDD19B0C3E57A
:104A580029B1E023A5A9B1C10082674C1A978D79C5
:104A68005120C7068E7C7C7A764FFD5930E2460E7F
:104A78009EBEDF1D9991A0A5A1A9D022C6EF5C1BFF
:104A8800958990A2A7CCFB5528B3E44AF76C3BF470
:104A98006A562EDE1F9DB8D3058892A6CE1EBEDFAD
:104AA8001D99B0E246EF5C07115D980B9D9497EE57
:104AB8004E45336B44C729562730C6A7D5F256DF73
:104AC800B43862CBA0B6E30F84062405656F7689F7
:104AD800B577412782666582CCD5E620D52717C5EC
:104AE800F803237C5F64A51DC1D636CB4CD4DB66A6
:104AF800D78BB1997E6F4C364006D6EBD7A2E4F43B
:104B080095515A5496D55344D78CE0B94068D21879
:104B1800E9DD9A239248EE7F43AFEA7738848C0A1E
:104B280072AF69F8DDF12483A3F84ABFF59413DB6B
:104B3800BBD8B4B3A0FB4550603059123171A2D331
:104B480013E7FAE7CE0F63150B6B94BB3783260583
:104B58009DFB4692FC0A15D10D7392D68C1B8CB81E
:104B6800558ACEBDFE8EFCED091283918251312308
:104B7800FBB40C76AD7CD9B44BB26714099C7F0C9E
:104B880018BA3BD68E142AE41B529F2B7DE1FB6A90
:104B98003302FAAC5AF23E887EAED1F378E805D1FA
:104BA800E3DC21F6E19ABD170ED9469B8803EAF6A5
:104BB80066BE0E1B5049964097F1F1E480A66EE858
:104BC8007734BF294044C2FF4E98D39CA3322B763A
:104BD800510409E7A9D1A632B12353E247ABD6F570
:104BE800695C3E5FFAAE4520E5D244FF39326DFD7F
:104BF80027575CFDF0DEC1B599E5F51C770175C551
:104C08006D5892F2B247000126967A30FFB7F0EF5E
:104C180077C18A5DDCC0D129301E77387A94F1B823
:104C28007A7EEFA4D1AC314AF25D643DB2E2F0087D
:104C380099FC70EE24A77EEE1E20697D44BF874252
:104C4800DF883B0CDA42C904F94550FC838F116AAE
:104C580072BC9995F0AC3DA73BCD1CE28879371121
:104C68005F3989950A16847AF68AA428E4ED838048
:104C78003BB123A50310F466EABB0C0FC5EC6C69C5
:104C8800C5D324ABD42AB799887608A0A8957CD830
:104C9800386DCD5902514BF1B52B50E3B6BDD072EA
:104CA800CF9EFD6EBB44C8248A77188A1306EF97F7
:104CB8007DFA81F031E6FA77ED3106315B548A9F4F
:104CC8003068DBE240F84E73FAAB748B105813DC93
:104CD800D2E678D1322E8A9F2C58064827C5A95E7D
:104CE8008147894621910370A43E889CDA330ACE15
:104CF800BC8B8ECF9FD3718043CF6BA95183763005
:104D080082C56A853911501A82DC1E1CD57DA971AD
:104D18009933471997B35AB1DFEDA4F2E62684A276
:104D2800289A9EDFA66AF4D6FC2E5B9D1A2A27686D
:104D3800FBC183214B90E036DD5B314255A013F770
:104D4800D089537199570929C5F321F8372F40F3B2
:104D5800D4AF16083602FC77C58B049056B9C967DC
:104D68009A99E800D386FF972D08E9B7B391BCDF7D
:104D780045C6ED0F8C4C1EE65B6E3830E4AAE39511
:104D8800DEB9E49AF5B2559A879BF66AB2F2779A39
:104D980031F47A31D11D04C07C32A29E9AF562F8B2
:104DA800278DBF51FFD3DF64373F2A6F763A7D776F
:104DB800069E777F5EEB3251F916669A09F3B008C2
:104DC800A470964630FFDA4FE91BED8DF8741F3159
:104DD80092B3731736DB9130D688556B3477877A60
:104DE800E7EE06C61C8C190C4846235E9C075CBF80
:104DF800B47ED64F749CE2C5508BC58B159060620B
:104E08005729D01343A18088910044C74D1986CCF7
:104E18002F2A755AFCEB972A70E378D891B04F99EE
:104E280007A395EA2421D5DE512093270A3073A8D9
:104E3800FF8A97E9A76A8E0DE8F0DFECEAB46C1DEB
:104E4800392A622D3D5A8B65F890052E7E912C7873
:104E5800EF8E7AC12FAC78EEAF2845064C26AF3BD3
:104E6800A2DBA39306B53CA5D8EE8FAF25CC3F8532
:104E78006848A962CC978F7F2AEAE0150AAD6207D5
:104E8800BD45F841D836CB4CDB6EE63AE7DA15E992
:104E9800291E1210A0142C0E3DF4BF394192750B37
:104EA800257BA3CE399C1564C8FA3DEF7327FE26EF
:104EB8002ECEDA6EFD718EDDFE76EEDC125C02C55A
:104EC8003A4E4E4FBFCA4015C76E8D41F110E04FA4
:104ED8007E977F1CAE478E6BB12531B073C71B9789
:104EE80079F980D366223007741EE4D08021D6EE8B
:104EF8006B6C4FBFF5B7D909872FA914BE27D97294
:104F08005001D41373A6A751027525E1B345347D2A
:104F1800A88EEBF31649CB4F8CA1B9368539755D50
:104F28000800AEEBF6EAD7133A215A5F30845226CE
:104F380095C914F257556BB110C2E1BD3B51C0B7CA
:104F4800554C711226C70DF951A43802057FB8F1E6
:104F5800724BBF718914F37738D97124F30011A10A
:104F6800D8D46927083735C9119D901C0EE71CFF56
:104F78002D1EE892E11810957CE080F4964321F903
:104F880075216438DD9F1E9516DA561D4F9A53B267
:104F9800E2E418CB6B1A65EB56C63BE5FED8263F14
:104FA8003A84597266A2F375FFFB60B322AD3F2DB8
:104FB8006BF9EBEA057CD88F6D2C989E2B93F15EEC
:104FC80046F08749297368D77FF9F0E57DDB1D75C1
:104FD80019F3C4589B1788A892E0BEBD8B1D8D9FFE
:104FE8005676ADAF29E2D9D552F6B55635573AC8F7
:104FF800E156431994D3049B6D35D80B5F4D198E38
:10500800ECFA64910A72202BBC1A4AFE8BFDBBEDA8
:105018001B23EAAD7282A1299971BDF095C103DD08
:105028007BC2B23C2854D368A472C86696E0D1D833
:105038007FF8D1262BF7ADBA55CA15B932C3E58822
:10504800978E5CFB92258BBFA245557AA76F8B572D
:105058005BCF0ECB1DFB208277A88CCC16CE1DFA19
:10506800DECC0B62FECCE1B7F0C381647340A0C212
:105078004D8911753355338DE84AFDEA6E300BD7EB
:10508800312CDE47E3BFF85542E27F59E517EF9927
:10509800346991B1238E20872DA8FED58AF3843AEE
:1050A800F037E4090054EE674993E48170E3904DCA
:1050B800EFFE41B7997BC183BA62126F7DDE6BAF99
:1050C800DA16F95551EEA60C2B02A3FD8DFB30170D
:1050D800E46FDF3671C4CA872548B047ECEAB4BF2D
:1050E800A54D9B9F0293C4E3E4E8422D6881150A0D
:1050F800EB845BD6A874FB7D1DCB2CDA462A76623E
:10510800CEBC5C9E8BE7CFBE78F57CEBB33A9CAA0D
:105118006FCC72D159F21123D63F48D1B7CEB0BF68
:10512800CBEA80DE57D45E972F75D1508E802C66DF
:1051380079BF724BBD8A816CD3E101DCD21526C5DB
:1051480036DA2C1AC02794EDB79B850B5E8097C57D
:10515800EC4FEC885D50073547DC0B3B3DDD60AF1D
:10516800A85D813824255D5C15D1DEB3ABEC0569FB
:10517800EF83ED5754B8646411163269DA9F2D7FB6
:1051880036BB445A34E87FBF03EB007F5968227965
:10519800CF736C2C29A7A15F38A11DF02053E01A0A
:1051A8006314587110AA080C3E161A6022827FBA3E
:1051B800A443A0D0AC1BD56B64B51493319E535057
:1051C800D05766EE5A4FFB032A695876F183F74E9B
:1051D800BA8C4206605D6DCE6088AEA4C3F103A5AB
:1051E8004B98A1FF67E1ACA2B862D76FA031B4D2E7
:1051F80077AF211006C69AFF1D09170E5FF1AA5452
:10520800344B458A8763A6DCF9243067C6B2D66179
:105218003369EE50615728E77EEEEC3A5A734EA890
:105228008DE418EAEC4164C8E2E866B62DB6FB6A7C
:105238006C16B3DD4643B973006A71ED4E9D251AAD
:10524800C33C4A95159935811402D6989BECD8230E
:105258003B8429AF0C9983A69A344FFAE8D03C4B8B
:10526800D0FBB668B89E8FCDF7602D7A22E57DAB6E
:10527800651B95A7A87FB677477B5F8B1272D0D442
:1052880091EFDE19503CA78BC4A9B323CB76E681F6
:10529800F0C1048FA3B8545B97AC19FF3F55272F73
:1052A800E01D429B57FC4B4E0FCE98A9435703BDB8
:1052B800E7C894DF6E367332B4EF2E857A6EFC6CD5
:1052C800188275359007F3E49F3EDC68F3B5F3194F
:1052D80080920699A2E86FFF2E7FAE42A45FFBD4AE
:1052E8000E812BC304FF2BB3744E365B9C1500C68E
:1052F800472BE88B3DF19C039A587F9B9CBF8549BF
:1053080079352E567B411439478326AA0789981187
:105318001B86E7737AD87D786153E979F5368D4431
:105328009284F91350583BA46A3665498E3C0EF1B5
:105338006FD284C47E8E3F39AE7C84F163378E3C55
:10534800CC3E448145F14BB9ED6B365DBB20601A0C
:105358000FA3AA55773AA9AE374DBAB8866BBC08E1
:1053680050F6CCA4BD1D4072A586FAE210AE3D5899
:105378004B97F34374A99EEB21B701A4869397EE4C
:105388002F4F3B86A1416F412690785C7F30384B88
:105398003FAAECED5C6F0EAD4387FD9335E601EF58
:1053A800412690999EFB195BADD2918AE046AF6584
:1053B800FA4F84C1A12DCF458BD38550557CF96711
:1053C80088D44EE9D76B6154A1A4A6A2C2BF309C71
:1053D800409F5FD7692B24825ED9D6A712541AF74B
:1053E800559F7650A99584E66B6DB59654D6CDB386
:1053F800A19B46A7944DC494B498E3E1E234D53315
:10540800160754CDB77753DB4F4D469DE9D49C8A98
:1054180036B6B838266C0EFF9C1B438B80CCB93D42
:10542800DAC7F18AF26DB8D7742F7E1EB7D34AB4A3
:10543800ACFC79486CBC96B69446572DB0A3FC1EBC
:10544800B95260852D41D043011E1CD57DFCF396D1
:105458000DC7CB2A299A93DD882D375DAAFB4968A9
:10546800A09C50867F685657F9791839D4E0018492
:105478003361CAA5D2D6E4C98A4A23444EBCF0DCBB
:1054880024A1A0C4E2073C10C4B5254B6563F48091
:10549800E7CF61B1718221872CF59100320CECA91C
:1054A800B59A7485E3368F764F9C6DCEBCAD0A4BAA
:1054B800ED7604CBC3B9339E019396697DC5A245A9
:1054C800799B045C8409ED8843C7AB931426A140FB
:1054D800B5CE4EBF2A42853E2C3B54E8121F0E978C
:1054E80059B22789FAF2DF8E6859DC06BCB6850DF9
:1054F8000622ECB1CBE504E63DB3B04173083F3C6E
:10550800588663EB50EE1D2C3774A9D318A3476E49
:105518009354AD0A5DB82A555D78F6EEBE8E3C769A
:1055280069B940C234EC2AB9ED7E20E48D0038C751
:10553800E68F44A886CEEB2AE990F14CDF32FB7364
:105548001B6D921E95FEB4DB65DF4D23548948BF61
:105558004A2E70D6D762B43329B13A334C236DA69C
:1055680076A5216348E6905DED90950B7A84BEB8E8
:105578000D5E630C62264C145AB3AC23A474A76F57
:10558800333005600142A028B7EE1938F1648082F3
:1055980043E141271F1F90547AD5232ED13DCB28B4
:1055A800BA587FDC7C9124E92851836EC556214284
:1055B800EDA05622A140806BA8F794CA136B0C3952
:1055C800D9FDE9F36FA69EFC708AB3BC593C1E1D39
:1055D8006CF97CAFF9887195EB5700BD9F8C4FE152
:1055E8002483C522EAFDD30CE217187C6A4CDE77C7
:1055F800B4539B4C81CD2360AA0E25739C0279324B
:1056080030DF74DF7519F4A5145CF77AA8A59184C6
:105618007C6003063BCD50B6279CFEB1DDCCD3B0F1
:105628005924B2CAE21C81229D078F8EB9BE4EFA58
:10563800FC3965BABF9D12375E977EF389F55DF533
:10564800E3098C62B5209D0C538A681BD28F7517AD
:105658005DD4E5DA756219146A262DEBF8AF37F0D8
:105668006CA455B1BCE233C09ACAB011494F689BCB
:105678003B6B3CCC13F6C785616842AEBBDDCD45BC
:1056880016291DEADBC803943CEE4F8211C3EC28AF
:10569800BD970599DED7BB5E221FD4EB64D992D99A
:1056A80085B76A056AE42441F1CDF0D83FF89E0E2B
:1056B800CD0B7A706B5A750A6A3388EC17750870C7
:1056C800102F24CFC4E942006194CA1F3A7606FA23
:1056D800D24881F077600345D961F4A46F3DD93091
:1056E800C3046B542AB7EC3BF44BF5685226CEFF43
:1056F8005D1991A0A3A5A9B1E023C40A774DF9517A
:1057080020A3A5A9B1C10082868E7F5D1991A0A3AF
:10571800C4EB540B756852078C9A978D7970624662
:10572800EF5C1B95897141E121A1A1A1C002674CE1
:105738001AB6CFFD785324ABB5C9F16023A5C812BA
:10574800876D5813858892876D5832C70C9A97AC25
:10575800DA36EE5E3EDF1DB8F2662FBDF87247ED11
:105768005813858892878C7B550990A2C6EF3DF81F
:105778005324ABD42AB7EC5A36EE5E3EDF3CFA76B9
:105788004FFD5930E246EF3DF853056931C10082BB
:10579800868E7F5D19B0E227CCFB744B148B948BFB
:1057A800756833C50892878C9AB6CF1CBAD70D98FE
:1057B800B2E62FDC1B9589716023C40A968F9CBAC8
:1057C800F66E3FFC5B15A8D226AFBDF872662FDCDB
:1057D8001BB4CB148B94AAB7CDF951018082866F84
:1057E8003DD930E227CCFB744B14AAB7CDF97043EE
:1057F800046B35C9F16023A5C8F3450892876D5835
:1058080032E62FBDF872664E1EBEFE7E7E7E5F1D9E
:105818009991A0A3C40A774D1893A4ABD40B7549EA
:1058280010A2C6EF3DF85324ABB5E833E44A16AEF0
:10583800DE1FBCDB15A8B3C5087345E931C1E121FA
:10584800A1A1A1C002866F5C3AD70D9893A4CA168D
:10585800AEDE1F9D99B0E246EF3DF872470C9AB64E
:10586800CFFD5911A0A3A5C8F3450892876D39F05B
:1058780043048A96AEDE3EDF1D9991A0C2066F3DB5
:10588800F872470C9A978D989385887345E931E0AB
:1058980023A5A9D003848A96AEDE1FBCDB15A8D247
:1058A80026CEFF5D1991818082672DD813A4ABD4D1
:1058B8000B94AAB7CDF95120A3A5C8F345E9502206
:1058C800C6EF5C3AD70D9893858873644AF74DF90B
:1058D8005120A3C40A96AEDE3EFE7E7E7E5F3CFA71
:1058E800764FFD7872662FBDD930C3E54812878C94
:1058F8007B5528D2078C9A97ACDA178D795120A35B
:10590800C4EB540B948B94AAD62EBFFC5B15A8D27B
:1059180026AFDC1BB4EA37EC3BF46A37CD18938525
:105928006931C1E140E325C812878C9AB6CFFD5989
:1059380011A0C2068E7F5D38F2470C7B746A37EC83
:105948005A36EE3FFC7A764F1C9B9589714100636D
:1059580044EB542AD60F9CBAD70D9893856931C168
:105968000082868E9EBEDF3CFA572CDA36EE3FFC6C
:105978005B158971410082868E7F5D38F247ED584C
:1059880013A4CAF74DF95101806344EB542AD62E6B
:10599800BFDD1991A0A3A5A9B1E042068E7F5D19CC
:1059A80091A0A3C40A968F7D7872470C7B746A56BF
:1059B8002EDE1FBCFA570D7951016121A1C0E325E4
:1059C800A9B1C1E14002674C1A978D9893A4ABD452
:1059D8002AD60F9C9BB4CB14AAB7CDF95120A3C4E7
:1059E800EB35C9F16042068E7F7C7A766E3FFC7A91
:1059F800766E5E3EFE7E5F3CDB15897141E121C01B
:105A0800E344EB542AB7CDF9706227ADD832C70CFE
:105A18007B744B14AAB7EC3BD528D2076D39D1203B
:105A2800C2E74C1A978D98B2C70C5928F39B00000F
:105A380064656C7461203E3D202D32303438202658
:105A4800262064656C7461203C3D20323034362059
:105A5800262620212864656C7461202620312900BF
:105A6800433A2F50726F6772616D2046696C657397
:105A78002F5261737062657272792050692F506974
:105A8800636F2053444B2076312E352E302F7069AA
:105A9800636F2D73646B2F7372632F7270325F6341
:105AA8006F6D6D6F6E2F68617264776172655F6983
:105AB80072712F6972712E630000000021286465DD
:105AC8006C7461203E3E2031317529006375727215
